{
  "contractName": "IKP",
  "abi": [
    {
      "constant": true,
      "inputs": [
        {
          "name": "",
          "type": "uint256"
        }
      ],
      "name": "cas",
      "outputs": [
        {
          "name": "caOwner",
          "type": "address"
        },
        {
          "name": "caName",
          "type": "string"
        }
      ],
      "payable": false,
      "stateMutability": "view",
      "type": "function"
    },
    {
      "constant": true,
      "inputs": [
        {
          "name": "",
          "type": "uint256"
        }
      ],
      "name": "rps",
      "outputs": [
        {
          "name": "signer",
          "type": "address"
        },
        {
          "name": "CA",
          "type": "address"
        },
        {
          "name": "attributeID",
          "type": "uint256"
        },
        {
          "name": "expiry",
          "type": "uint256"
        }
      ],
      "payable": false,
      "stateMutability": "view",
      "type": "function"
    },
    {
      "constant": true,
      "inputs": [
        {
          "name": "",
          "type": "uint256"
        }
      ],
      "name": "dcps",
      "outputs": [
        {
          "name": "owner",
          "type": "address"
        },
        {
          "name": "identifier",
          "type": "string"
        },
        {
          "name": "data",
          "type": "string"
        },
        {
          "name": "certHash",
          "type": "string"
        },
        {
          "name": "certExpiry",
          "type": "uint256"
        },
        {
          "name": "CA",
          "type": "address"
        }
      ],
      "payable": false,
      "stateMutability": "view",
      "type": "function"
    },
    {
      "constant": true,
      "inputs": [
        {
          "name": "",
          "type": "uint256"
        }
      ],
      "name": "revocations",
      "outputs": [
        {
          "name": "rpID",
          "type": "uint256"
        },
        {
          "name": "certHash",
          "type": "string"
        },
        {
          "name": "CA",
          "type": "address"
        }
      ],
      "payable": false,
      "stateMutability": "view",
      "type": "function"
    },
    {
      "constant": true,
      "inputs": [
        {
          "name": "",
          "type": "uint256"
        }
      ],
      "name": "detectors",
      "outputs": [
        {
          "name": "authority",
          "type": "address"
        }
      ],
      "payable": false,
      "stateMutability": "view",
      "type": "function"
    },
    {
      "anonymous": false,
      "inputs": [
        {
          "indexed": true,
          "name": "attributeID",
          "type": "uint256"
        },
        {
          "indexed": true,
          "name": "owner",
          "type": "address"
        },
        {
          "indexed": false,
          "name": "identifier",
          "type": "string"
        },
        {
          "indexed": false,
          "name": "data",
          "type": "string"
        },
        {
          "indexed": false,
          "name": "certHash",
          "type": "string"
        },
        {
          "indexed": false,
          "name": "certExpiry",
          "type": "uint256"
        },
        {
          "indexed": false,
          "name": "CA",
          "type": "address"
        }
      ],
      "name": "DCPAdded",
      "type": "event"
    },
    {
      "anonymous": false,
      "inputs": [
        {
          "indexed": true,
          "name": "signatureID",
          "type": "uint256"
        },
        {
          "indexed": true,
          "name": "signer",
          "type": "address"
        },
        {
          "indexed": false,
          "name": "CA",
          "type": "address"
        },
        {
          "indexed": true,
          "name": "attributeID",
          "type": "uint256"
        },
        {
          "indexed": false,
          "name": "expiry",
          "type": "uint256"
        }
      ],
      "name": "RPSigned",
      "type": "event"
    },
    {
      "anonymous": false,
      "inputs": [
        {
          "indexed": true,
          "name": "revocationID",
          "type": "uint256"
        },
        {
          "indexed": false,
          "name": "certHash",
          "type": "string"
        },
        {
          "indexed": true,
          "name": "reactionPolicyID",
          "type": "uint256"
        },
        {
          "indexed": false,
          "name": "caAddress",
          "type": "address"
        }
      ],
      "name": "SignatureRevoked",
      "type": "event"
    },
    {
      "anonymous": false,
      "inputs": [
        {
          "indexed": true,
          "name": "detectorID",
          "type": "uint256"
        },
        {
          "indexed": true,
          "name": "authority",
          "type": "address"
        }
      ],
      "name": "DetectorAdded",
      "type": "event"
    },
    {
      "anonymous": false,
      "inputs": [
        {
          "indexed": true,
          "name": "caID",
          "type": "uint256"
        },
        {
          "indexed": true,
          "name": "CAOwner",
          "type": "address"
        },
        {
          "indexed": false,
          "name": "name",
          "type": "string"
        }
      ],
      "name": "CAAdded",
      "type": "event"
    },
    {
      "anonymous": false,
      "inputs": [
        {
          "indexed": false,
          "name": "caIndex",
          "type": "uint256"
        },
        {
          "indexed": false,
          "name": "detectorIndex",
          "type": "uint256"
        }
      ],
      "name": "CABlacklisted",
      "type": "event"
    },
    {
      "constant": false,
      "inputs": [
        {
          "name": "detectorAddress",
          "type": "address"
        }
      ],
      "name": "addDetector",
      "outputs": [
        {
          "name": "detectorID",
          "type": "uint256"
        }
      ],
      "payable": false,
      "stateMutability": "nonpayable",
      "type": "function"
    },
    {
      "constant": true,
      "inputs": [],
      "name": "getDetectorCount",
      "outputs": [
        {
          "name": "",
          "type": "uint256"
        }
      ],
      "payable": false,
      "stateMutability": "view",
      "type": "function"
    },
    {
      "constant": true,
      "inputs": [
        {
          "name": "index",
          "type": "uint256"
        }
      ],
      "name": "getDetector",
      "outputs": [
        {
          "name": "",
          "type": "address"
        }
      ],
      "payable": false,
      "stateMutability": "view",
      "type": "function"
    },
    {
      "constant": false,
      "inputs": [
        {
          "name": "caAddress",
          "type": "address"
        },
        {
          "name": "caName",
          "type": "string"
        }
      ],
      "name": "registerCA",
      "outputs": [
        {
          "name": "caID",
          "type": "uint256"
        }
      ],
      "payable": false,
      "stateMutability": "nonpayable",
      "type": "function"
    },
    {
      "constant": true,
      "inputs": [],
      "name": "getCACount",
      "outputs": [
        {
          "name": "",
          "type": "uint256"
        }
      ],
      "payable": false,
      "stateMutability": "view",
      "type": "function"
    },
    {
      "constant": true,
      "inputs": [
        {
          "name": "index",
          "type": "uint256"
        }
      ],
      "name": "getCA",
      "outputs": [
        {
          "name": "",
          "type": "address"
        },
        {
          "name": "",
          "type": "string"
        }
      ],
      "payable": false,
      "stateMutability": "view",
      "type": "function"
    },
    {
      "constant": false,
      "inputs": [
        {
          "name": "caIndex",
          "type": "uint256"
        },
        {
          "name": "detectorIndex",
          "type": "uint256"
        }
      ],
      "name": "blacklistCA",
      "outputs": [],
      "payable": false,
      "stateMutability": "nonpayable",
      "type": "function"
    },
    {
      "constant": false,
      "inputs": [
        {
          "name": "identifier",
          "type": "string"
        },
        {
          "name": "data",
          "type": "string"
        },
        {
          "name": "certHash",
          "type": "string"
        },
        {
          "name": "certExpiry",
          "type": "uint256"
        },
        {
          "name": "CA",
          "type": "address"
        }
      ],
      "name": "registerDCP",
      "outputs": [
        {
          "name": "dcpID",
          "type": "uint256"
        }
      ],
      "payable": false,
      "stateMutability": "nonpayable",
      "type": "function"
    },
    {
      "constant": true,
      "inputs": [],
      "name": "getDCPCount",
      "outputs": [
        {
          "name": "",
          "type": "uint256"
        }
      ],
      "payable": false,
      "stateMutability": "view",
      "type": "function"
    },
    {
      "constant": true,
      "inputs": [
        {
          "name": "index",
          "type": "uint256"
        }
      ],
      "name": "getDCP",
      "outputs": [
        {
          "name": "",
          "type": "address"
        },
        {
          "name": "",
          "type": "string"
        },
        {
          "name": "",
          "type": "string"
        },
        {
          "name": "",
          "type": "string"
        },
        {
          "name": "",
          "type": "uint256"
        },
        {
          "name": "",
          "type": "address"
        }
      ],
      "payable": false,
      "stateMutability": "view",
      "type": "function"
    },
    {
      "constant": false,
      "inputs": [
        {
          "name": "dcpID",
          "type": "uint256"
        },
        {
          "name": "expiry",
          "type": "uint256"
        }
      ],
      "name": "signRP",
      "outputs": [
        {
          "name": "signatureID",
          "type": "uint256"
        }
      ],
      "payable": false,
      "stateMutability": "nonpayable",
      "type": "function"
    },
    {
      "constant": true,
      "inputs": [],
      "name": "getRPCount",
      "outputs": [
        {
          "name": "",
          "type": "uint256"
        }
      ],
      "payable": false,
      "stateMutability": "view",
      "type": "function"
    },
    {
      "constant": true,
      "inputs": [
        {
          "name": "index",
          "type": "uint256"
        }
      ],
      "name": "getRP",
      "outputs": [
        {
          "name": "",
          "type": "address"
        },
        {
          "name": "",
          "type": "address"
        },
        {
          "name": "",
          "type": "uint256"
        },
        {
          "name": "",
          "type": "uint256"
        }
      ],
      "payable": false,
      "stateMutability": "view",
      "type": "function"
    },
    {
      "constant": false,
      "inputs": [
        {
          "name": "reactionPolicyID",
          "type": "uint256"
        },
        {
          "name": "certHash",
          "type": "string"
        },
        {
          "name": "caAddress",
          "type": "address"
        },
        {
          "name": "detectorIndex",
          "type": "uint256"
        }
      ],
      "name": "revokeSignature",
      "outputs": [
        {
          "name": "revocationID",
          "type": "uint256"
        }
      ],
      "payable": false,
      "stateMutability": "nonpayable",
      "type": "function"
    },
    {
      "constant": true,
      "inputs": [],
      "name": "getRevokedCount",
      "outputs": [
        {
          "name": "",
          "type": "uint256"
        }
      ],
      "payable": false,
      "stateMutability": "view",
      "type": "function"
    },
    {
      "constant": true,
      "inputs": [
        {
          "name": "index",
          "type": "uint256"
        }
      ],
      "name": "getRevokedCerts",
      "outputs": [
        {
          "name": "",
          "type": "uint256"
        },
        {
          "name": "",
          "type": "string"
        },
        {
          "name": "",
          "type": "address"
        }
      ],
      "payable": false,
      "stateMutability": "view",
      "type": "function"
    }
  ],
  "bytecode": "0x608060405234801561001057600080fd5b50612a9d806100206000396000f30060806040526004361061011d576000357c0100000000000000000000000000000000000000000000000000000000900463ffffffff1680630dcee568146101225780630f8a9779146101d05780631b56df761461023d5780632a6a9d29146103165780632f1e22c1146103f657806339bde5a3146104a7578063498070d3146105555780635813556f1461062e57806363a9cbcb1461081957806366d9a30b146108705780637a8d9654146108bb57806389b4816214610aa65780638aecc34a14610b435780638b1430bd14610b7a57806397323a9b14610ba5578063a2f3fcb014610cd8578063b066dc6614610d03578063b65d62a614610d2e578063cc501d5e14610d59578063ed0c804914610d84578063f4907cc414610e64575b600080fd5b34801561012e57600080fd5b5061014d60048036038101908080359060200190929190505050610ed1565b604051808573ffffffffffffffffffffffffffffffffffffffff1673ffffffffffffffffffffffffffffffffffffffff1681526020018473ffffffffffffffffffffffffffffffffffffffff1673ffffffffffffffffffffffffffffffffffffffff16815260200183815260200182815260200194505050505060405180910390f35b3480156101dc57600080fd5b506101fb60048036038101908080359060200190929190505050610faa565b604051808273ffffffffffffffffffffffffffffffffffffffff1673ffffffffffffffffffffffffffffffffffffffff16815260200191505060405180910390f35b34801561024957600080fd5b5061026860048036038101908080359060200190929190505050610ff0565b604051808373ffffffffffffffffffffffffffffffffffffffff1673ffffffffffffffffffffffffffffffffffffffff16815260200180602001828103825283818151815260200191508051906020019080838360005b838110156102da5780820151818401526020810190506102bf565b50505050905090810190601f1680156103075780820380516001836020036101000a031916815260200191505b50935050505060405180910390f35b34801561032257600080fd5b50610341600480360381019080803590602001909291905050506110db565b60405180848152602001806020018373ffffffffffffffffffffffffffffffffffffffff1673ffffffffffffffffffffffffffffffffffffffff168152602001828103825284818151815260200191508051906020019080838360005b838110156103b957808201518184015260208101905061039e565b50505050905090810190601f1680156103e65780820380516001836020036101000a031916815260200191505b5094505050505060405180910390f35b34801561040257600080fd5b5061049160048036038101908080359060200190929190803590602001908201803590602001908080601f0160208091040260200160405190810160405280939291908181526020018383808284378201915050505050509192919290803573ffffffffffffffffffffffffffffffffffffffff1690602001909291908035906020019092919050505061120c565b6040518082815260200191505060405180910390f35b3480156104b357600080fd5b506104d26004803603810190808035906020019092919050505061146b565b604051808573ffffffffffffffffffffffffffffffffffffffff1673ffffffffffffffffffffffffffffffffffffffff1681526020018473ffffffffffffffffffffffffffffffffffffffff1673ffffffffffffffffffffffffffffffffffffffff16815260200183815260200182815260200194505050505060405180910390f35b34801561056157600080fd5b50610580600480360381019080803590602001909291905050506114ea565b604051808373ffffffffffffffffffffffffffffffffffffffff1673ffffffffffffffffffffffffffffffffffffffff16815260200180602001828103825283818151815260200191508051906020019080838360005b838110156105f25780820151818401526020810190506105d7565b50505050905090810190601f16801561061f5780820380516001836020036101000a031916815260200191505b50935050505060405180910390f35b34801561063a57600080fd5b50610659600480360381019080803590602001909291905050506115f4565b604051808773ffffffffffffffffffffffffffffffffffffffff1673ffffffffffffffffffffffffffffffffffffffff1681526020018060200180602001806020018681526020018573ffffffffffffffffffffffffffffffffffffffff1673ffffffffffffffffffffffffffffffffffffffff168152602001848103845289818151815260200191508051906020019080838360005b8381101561070b5780820151818401526020810190506106f0565b50505050905090810190601f1680156107385780820380516001836020036101000a031916815260200191505b50848103835288818151815260200191508051906020019080838360005b83811015610771578082015181840152602081019050610756565b50505050905090810190601f16801561079e5780820380516001836020036101000a031916815260200191505b50848103825287818151815260200191508051906020019080838360005b838110156107d75780820151818401526020810190506107bc565b50505050905090810190601f1680156108045780820380516001836020036101000a031916815260200191505b50995050505050505050505060405180910390f35b34801561082557600080fd5b5061085a600480360381019080803573ffffffffffffffffffffffffffffffffffffffff1690602001909291905050506118ea565b6040518082815260200191505060405180910390f35b34801561087c57600080fd5b506108a560048036038101908080359060200190929190803590602001909291905050506119ab565b6040518082815260200191505060405180910390f35b3480156108c757600080fd5b506108e660048036038101908080359060200190929190505050611bdf565b604051808773ffffffffffffffffffffffffffffffffffffffff1673ffffffffffffffffffffffffffffffffffffffff1681526020018060200180602001806020018681526020018573ffffffffffffffffffffffffffffffffffffffff1673ffffffffffffffffffffffffffffffffffffffff168152602001848103845289818151815260200191508051906020019080838360005b8381101561099857808201518184015260208101905061097d565b50505050905090810190601f1680156109c55780820380516001836020036101000a031916815260200191505b50848103835288818151815260200191508051906020019080838360005b838110156109fe5780820151818401526020810190506109e3565b50505050905090810190601f168015610a2b5780820380516001836020036101000a031916815260200191505b50848103825287818151815260200191508051906020019080838360005b83811015610a64578082015181840152602081019050610a49565b50505050905090810190601f168015610a915780820380516001836020036101000a031916815260200191505b50995050505050505050505060405180910390f35b348015610ab257600080fd5b50610b2d600480360381019080803573ffffffffffffffffffffffffffffffffffffffff169060200190929190803590602001908201803590602001908080601f0160208091040260200160405190810160405280939291908181526020018383808284378201915050505050509192919290505050611e32565b6040518082815260200191505060405180910390f35b348015610b4f57600080fd5b50610b786004803603810190808035906020019092919080359060200190929190505050611f81565b005b348015610b8657600080fd5b50610b8f61218d565b6040518082815260200191505060405180910390f35b348015610bb157600080fd5b50610cc2600480360381019080803590602001908201803590602001908080601f0160208091040260200160405190810160405280939291908181526020018383808284378201915050505050509192919290803590602001908201803590602001908080601f0160208091040260200160405190810160405280939291908181526020018383808284378201915050505050509192919290803590602001908201803590602001908080601f016020809104026020016040519081016040528093929190818152602001838380828437820191505050505050919291929080359060200190929190803573ffffffffffffffffffffffffffffffffffffffff16906020019092919050505061219a565b6040518082815260200191505060405180910390f35b348015610ce457600080fd5b50610ced612480565b6040518082815260200191505060405180910390f35b348015610d0f57600080fd5b50610d1861248d565b6040518082815260200191505060405180910390f35b348015610d3a57600080fd5b50610d4361249a565b6040518082815260200191505060405180910390f35b348015610d6557600080fd5b50610d6e6124a6565b6040518082815260200191505060405180910390f35b348015610d9057600080fd5b50610daf600480360381019080803590602001909291905050506124b3565b60405180848152602001806020018373ffffffffffffffffffffffffffffffffffffffff1673ffffffffffffffffffffffffffffffffffffffff168152602001828103825284818151815260200191508051906020019080838360005b83811015610e27578082015181840152602081019050610e0c565b50505050905090810190601f168015610e545780820380516001836020036101000a031916815260200191505b5094505050505060405180910390f35b348015610e7057600080fd5b50610e8f600480360381019080803590602001909291905050506125a4565b604051808273ffffffffffffffffffffffffffffffffffffffff1673ffffffffffffffffffffffffffffffffffffffff16815260200191505060405180910390f35b600080600080600185815481101515610ee657fe5b906000526020600020906004020160000160009054906101000a900473ffffffffffffffffffffffffffffffffffffffff16600186815481101515610f2757fe5b906000526020600020906004020160010160009054906101000a900473ffffffffffffffffffffffffffffffffffffffff16600187815481101515610f6857fe5b906000526020600020906004020160020154600188815481101515610f8957fe5b90600052602060002090600402016003015493509350935093509193509193565b6000600382815481101515610fbb57fe5b9060005260206000200160000160009054906101000a900473ffffffffffffffffffffffffffffffffffffffff169050919050565b600481815481101515610fff57fe5b90600052602060002090600202016000915090508060000160009054906101000a900473ffffffffffffffffffffffffffffffffffffffff1690806001018054600181600116156101000203166002900480601f0160208091040260200160405190810160405280929190818152602001828054600181600116156101000203166002900480156110d15780601f106110a6576101008083540402835291602001916110d1565b820191906000526020600020905b8154815290600101906020018083116110b457829003601f168201915b5050505050905082565b6000606060006002848154811015156110f057fe5b90600052602060002090600302016000015460028581548110151561111157fe5b906000526020600020906003020160010160028681548110151561113157fe5b906000526020600020906003020160020160009054906101000a900473ffffffffffffffffffffffffffffffffffffffff16818054600181600116156101000203166002900480601f0160208091040260200160405190810160405280929190818152602001828054600181600116156101000203166002900480156111f85780601f106111cd576101008083540402835291602001916111f8565b820191906000526020600020905b8154815290600101906020018083116111db57829003601f168201915b505050505091509250925092509193909250565b6000803373ffffffffffffffffffffffffffffffffffffffff1660018781548110151561123557fe5b906000526020600020906004020160000160009054906101000a900473ffffffffffffffffffffffffffffffffffffffff1673ffffffffffffffffffffffffffffffffffffffff1614806112f057503373ffffffffffffffffffffffffffffffffffffffff166003848154811015156112aa57fe5b9060005260206000200160000160009054906101000a900473ffffffffffffffffffffffffffffffffffffffff1673ffffffffffffffffffffffffffffffffffffffff16145b15611462576002805480919060010161130991906125ed565b915060028281548110151561131a57fe5b906000526020600020906003020190508581600001819055508481600101908051906020019061134b92919061261f565b50838160020160006101000a81548173ffffffffffffffffffffffffffffffffffffffff021916908373ffffffffffffffffffffffffffffffffffffffff16021790555085827f40a2aae71a6626bc0e78606944b51277d9643750a33f0938b57e3dca62fa729f878760405180806020018373ffffffffffffffffffffffffffffffffffffffff1673ffffffffffffffffffffffffffffffffffffffff168152602001828103825284818151815260200191508051906020019080838360005b8381101561142657808201518184015260208101905061140b565b50505050905090810190601f1680156114535780820380516001836020036101000a031916815260200191505b50935050505060405180910390a35b50949350505050565b60018181548110151561147a57fe5b90600052602060002090600402016000915090508060000160009054906101000a900473ffffffffffffffffffffffffffffffffffffffff16908060010160009054906101000a900473ffffffffffffffffffffffffffffffffffffffff16908060020154908060030154905084565b600060606004838154811015156114fd57fe5b906000526020600020906002020160000160009054906101000a900473ffffffffffffffffffffffffffffffffffffffff1660048481548110151561153e57fe5b9060005260206000209060020201600101808054600181600116156101000203166002900480601f0160208091040260200160405190810160405280929190818152602001828054600181600116156101000203166002900480156115e45780601f106115b9576101008083540402835291602001916115e4565b820191906000526020600020905b8154815290600101906020018083116115c757829003601f168201915b5050505050905091509150915091565b6000606080606060008060008781548110151561160d57fe5b906000526020600020906006020160000160009054906101000a900473ffffffffffffffffffffffffffffffffffffffff1660008881548110151561164e57fe5b906000526020600020906006020160010160008981548110151561166e57fe5b906000526020600020906006020160020160008a81548110151561168e57fe5b906000526020600020906006020160030160008b8154811015156116ae57fe5b90600052602060002090600602016004015460008c8154811015156116cf57fe5b906000526020600020906006020160050160009054906101000a900473ffffffffffffffffffffffffffffffffffffffff16848054600181600116156101000203166002900480601f0160208091040260200160405190810160405280929190818152602001828054600181600116156101000203166002900480156117965780601f1061176b57610100808354040283529160200191611796565b820191906000526020600020905b81548152906001019060200180831161177957829003601f168201915b50505050509450838054600181600116156101000203166002900480601f0160208091040260200160405190810160405280929190818152602001828054600181600116156101000203166002900480156118325780601f1061180757610100808354040283529160200191611832565b820191906000526020600020905b81548152906001019060200180831161181557829003601f168201915b50505050509350828054600181600116156101000203166002900480601f0160208091040260200160405190810160405280929190818152602001828054600181600116156101000203166002900480156118ce5780601f106118a3576101008083540402835291602001916118ce565b820191906000526020600020905b8154815290600101906020018083116118b157829003601f168201915b5050505050925095509550955095509550955091939550919395565b60008060038054809190600101611901919061269f565b915060038281548110151561191257fe5b906000526020600020019050828160000160006101000a81548173ffffffffffffffffffffffffffffffffffffffff021916908373ffffffffffffffffffffffffffffffffffffffff1602179055508273ffffffffffffffffffffffffffffffffffffffff16827f21c962562a9b3c6b140631bee4fc85775b1267dcf2972586409ffc371bd8ab2460405160405180910390a350919050565b6000803373ffffffffffffffffffffffffffffffffffffffff166000858154811015156119d457fe5b906000526020600020906006020160050160009054906101000a900473ffffffffffffffffffffffffffffffffffffffff1673ffffffffffffffffffffffffffffffffffffffff161415611bd85760018054809190600101611a3691906126cb565b9150600182815481101515611a4757fe5b90600052602060002090600402019050600084815481101515611a6657fe5b906000526020600020906006020160050160009054906101000a900473ffffffffffffffffffffffffffffffffffffffff168160010160006101000a81548173ffffffffffffffffffffffffffffffffffffffff021916908373ffffffffffffffffffffffffffffffffffffffff160217905550338160000160006101000a81548173ffffffffffffffffffffffffffffffffffffffff021916908373ffffffffffffffffffffffffffffffffffffffff160217905550838160020181905550828160030181905550833373ffffffffffffffffffffffffffffffffffffffff16837f90cd42778772d5dc6a1717dd19f03dfbc0cf43e7d8220c7f3472540a623303d58460010160009054906101000a900473ffffffffffffffffffffffffffffffffffffffff1687604051808373ffffffffffffffffffffffffffffffffffffffff1673ffffffffffffffffffffffffffffffffffffffff1681526020018281526020019250505060405180910390a45b5092915050565b600081815481101515611bee57fe5b90600052602060002090600602016000915090508060000160009054906101000a900473ffffffffffffffffffffffffffffffffffffffff1690806001018054600181600116156101000203166002900480601f016020809104026020016040519081016040528092919081815260200182805460018160011615610100020316600290048015611cc05780601f10611c9557610100808354040283529160200191611cc0565b820191906000526020600020905b815481529060010190602001808311611ca357829003601f168201915b505050505090806002018054600181600116156101000203166002900480601f016020809104026020016040519081016040528092919081815260200182805460018160011615610100020316600290048015611d5e5780601f10611d3357610100808354040283529160200191611d5e565b820191906000526020600020905b815481529060010190602001808311611d4157829003601f168201915b505050505090806003018054600181600116156101000203166002900480601f016020809104026020016040519081016040528092919081815260200182805460018160011615610100020316600290048015611dfc5780601f10611dd157610100808354040283529160200191611dfc565b820191906000526020600020905b815481529060010190602001808311611ddf57829003601f168201915b5050505050908060040154908060050160009054906101000a900473ffffffffffffffffffffffffffffffffffffffff16905086565b60008060048054809190600101611e4991906126fd565b9150600482815481101515611e5a57fe5b90600052602060002090600202019050838160000160006101000a81548173ffffffffffffffffffffffffffffffffffffffff021916908373ffffffffffffffffffffffffffffffffffffffff16021790555082816001019080519060200190611ec592919061261f565b508373ffffffffffffffffffffffffffffffffffffffff16827f5ada670aa38c40453207a5c3477d6fe6948cf829d2ee8b1bb95f3853be2c9f79856040518080602001828103825283818151815260200191508051906020019080838360005b83811015611f40578082015181840152602081019050611f25565b50505050905090810190601f168015611f6d5780820380516001836020036101000a031916815260200191505b509250505060405180910390a35092915050565b3373ffffffffffffffffffffffffffffffffffffffff16600382815481101515611fa757fe5b9060005260206000200160000160009054906101000a900473ffffffffffffffffffffffffffffffffffffffff1673ffffffffffffffffffffffffffffffffffffffff16141561214a576001600480549050111561213357600460016004805490500381548110151561201657fe5b906000526020600020906002020160048381548110151561203357fe5b90600052602060002090600202016000820160009054906101000a900473ffffffffffffffffffffffffffffffffffffffff168160000160006101000a81548173ffffffffffffffffffffffffffffffffffffffff021916908373ffffffffffffffffffffffffffffffffffffffff160217905550600182018160010190805460018160011615610100020316600290046120cf92919061272f565b5090505060046001600480549050038154811015156120ea57fe5b9060005260206000209060020201600080820160006101000a81549073ffffffffffffffffffffffffffffffffffffffff021916905560018201600061213091906127b6565b50505b600480548091906001900361214891906126fd565b505b7f9e41eab23098e5264c35f36c70900886ea8aa043d5589a475f8d9de1d084a8458282604051808381526020018281526020019250505060405180910390a15050565b6000600280549050905090565b600080600080548091906001016121b191906127fe565b91506000828154811015156121c257fe5b90600052602060002090600602019050868160010190805190602001906121ea92919061261f565b50338160000160006101000a81548173ffffffffffffffffffffffffffffffffffffffff021916908373ffffffffffffffffffffffffffffffffffffffff1602179055508581600201908051906020019061224692919061261f565b50828160050160006101000a81548173ffffffffffffffffffffffffffffffffffffffff021916908373ffffffffffffffffffffffffffffffffffffffff160217905550848160030190805190602001906122a292919061261f565b508381600401819055503373ffffffffffffffffffffffffffffffffffffffff16827f38a2f55cb12aa66fa5435fe3d918d0a7ed67b261f8ccd407d3dc442d437769cc8989898989604051808060200180602001806020018681526020018573ffffffffffffffffffffffffffffffffffffffff1673ffffffffffffffffffffffffffffffffffffffff168152602001848103845289818151815260200191508051906020019080838360005b8381101561236a57808201518184015260208101905061234f565b50505050905090810190601f1680156123975780820380516001836020036101000a031916815260200191505b50848103835288818151815260200191508051906020019080838360005b838110156123d05780820151818401526020810190506123b5565b50505050905090810190601f1680156123fd5780820380516001836020036101000a031916815260200191505b50848103825287818151815260200191508051906020019080838360005b8381101561243657808201518184015260208101905061241b565b50505050905090810190601f1680156124635780820380516001836020036101000a031916815260200191505b509850505050505050505060405180910390a35095945050505050565b6000600480549050905090565b6000600380549050905090565b60008080549050905090565b6000600180549050905090565b6002818154811015156124c257fe5b9060005260206000209060030201600091509050806000015490806001018054600181600116156101000203166002900480601f0160208091040260200160405190810160405280929190818152602001828054600181600116156101000203166002900480156125745780601f1061254957610100808354040283529160200191612574565b820191906000526020600020905b81548152906001019060200180831161255757829003601f168201915b5050505050908060020160009054906101000a900473ffffffffffffffffffffffffffffffffffffffff16905083565b6003818154811015156125b357fe5b906000526020600020016000915090508060000160009054906101000a900473ffffffffffffffffffffffffffffffffffffffff16905081565b81548183558181111561261a576003028160030283600052602060002091820191016126199190612830565b5b505050565b828054600181600116156101000203166002900490600052602060002090601f016020900481019282601f1061266057805160ff191683800117855561268e565b8280016001018555821561268e579182015b8281111561268d578251825591602001919060010190612672565b5b50905061269b919061288e565b5090565b8154818355818111156126c6578183600052602060002091820191016126c591906128b3565b5b505050565b8154818355818111156126f8576004028160040283600052602060002091820191016126f791906128f9565b5b505050565b81548183558181111561272a576002028160020283600052602060002091820191016127299190612976565b5b505050565b828054600181600116156101000203166002900490600052602060002090601f016020900481019282601f1061276857805485556127a5565b828001600101855582156127a557600052602060002091601f016020900482015b828111156127a4578254825591600101919060010190612789565b5b5090506127b2919061288e565b5090565b50805460018160011615610100020316600290046000825580601f106127dc57506127fb565b601f0160209004906000526020600020908101906127fa919061288e565b5b50565b81548183558181111561282b5760060281600602836000526020600020918201910161282a91906129cc565b5b505050565b61288b91905b808211156128875760008082016000905560018201600061285791906127b6565b6002820160006101000a81549073ffffffffffffffffffffffffffffffffffffffff021916905550600301612836565b5090565b90565b6128b091905b808211156128ac576000816000905550600101612894565b5090565b90565b6128f691905b808211156128f257600080820160006101000a81549073ffffffffffffffffffffffffffffffffffffffff0219169055506001016128b9565b5090565b90565b61297391905b8082111561296f57600080820160006101000a81549073ffffffffffffffffffffffffffffffffffffffff02191690556001820160006101000a81549073ffffffffffffffffffffffffffffffffffffffff021916905560028201600090556003820160009055506004016128ff565b5090565b90565b6129c991905b808211156129c557600080820160006101000a81549073ffffffffffffffffffffffffffffffffffffffff02191690556001820160006129bc91906127b6565b5060020161297c565b5090565b90565b612a6e91905b80821115612a6a57600080820160006101000a81549073ffffffffffffffffffffffffffffffffffffffff0219169055600182016000612a1291906127b6565b600282016000612a2291906127b6565b600382016000612a3291906127b6565b60048201600090556005820160006101000a81549073ffffffffffffffffffffffffffffffffffffffff0219169055506006016129d2565b5090565b905600a165627a7a72305820f57fc6bad70dc07714e1f2be45bc6fb961d92004d3e0385e5bf54f378a6055350029",
  "source": "pragma solidity ^0.4.16;\ncontract IKP {\n    struct DomainCertificatePolicy {\n        /*  DOMAIN CERTIFICATE POLICY (DCP)\n        *    Domain name identify domain for which the policy is active\n        *    CA who is authorised to issue DCP\n        *    data CERTIFICATE or domain\n        *    identifier indentify whether you are passing in a domain or a cert\n        */\n        address owner;\n        string identifier;\n        string data;\n        string certHash;\n        uint certExpiry;\n        address CA;\n    }\n\n    struct CertificateAuthority {\n        /*  CertificateAuthority (CA)\n        *   Domain name identify domain for which the RP is active\n        *   CAOwner owner of the CA \n        */\n        address caOwner;\n        string caName;\n    }\n    \n    struct ReactionPolicy {\n        /*  REACTION POLICY (RP)\n        *    Domain name identify domain for which the RP is active\n        *    Issuer CA who issued the RP\n        *    Valid from specify start period of RPs validity\n        *    Valid to specify start period of RPs validity\n        */\n        address signer;\n        address CA;\n        uint attributeID;\n        uint expiry;\n    }\n\n    struct Revocation {\n        /* \n        *   Revoke the malicious Certificate\n        */\n        uint rpID;\n        string certHash;\n        address CA;\n    }\n\n    struct Detector {\n        /*\n        *   Higher authority that has the power to revoke certs in addition to the CA\n        */\n        \n        address authority;\n    }\n    \n    DomainCertificatePolicy[] public dcps;\n    ReactionPolicy[] public rps;\n    Revocation[] public revocations;\n    Detector[] public detectors;\n    CertificateAuthority[] public cas;\n    \n    event DCPAdded(uint indexed attributeID, address indexed owner, string identifier, string data, string certHash, uint certExpiry, address CA);\n    event RPSigned(uint indexed signatureID, address indexed signer, address CA, uint indexed attributeID, uint expiry);\n    event SignatureRevoked(uint indexed revocationID, string certHash, uint indexed reactionPolicyID, address caAddress);\n    event DetectorAdded(uint indexed detectorID, address indexed authority);\n    event CAAdded(uint indexed caID, address indexed CAOwner, string name);\n    event CABlacklisted(uint caIndex, uint detectorIndex);\n    \n    function addDetector(address detectorAddress) public returns (uint detectorID) {\n        detectorID = detectors.length++;\n        Detector storage detector = detectors[detectorID];\n        detector.authority = detectorAddress;\n        emit DetectorAdded(detectorID, detectorAddress);\n    }\n    \n    function getDetectorCount() public constant returns(uint) {\n        return detectors.length;\n    }\n\n    function getDetector(uint index) public constant returns(address) {\n        return (detectors[index].authority);\n    }\n    \n    function registerCA(address caAddress, string caName) public returns (uint caID){\n        caID = cas.length++;\n        CertificateAuthority storage ca = cas[caID];\n        ca.caOwner = caAddress;\n        ca.caName = caName;\n        emit CAAdded(caID, caAddress, caName);\n    }\n    \n    function getCACount() public constant returns(uint) {\n        return cas.length;\n    }\n\n    function getCA(uint index) public constant returns(address, string) {\n        return (cas[index].caOwner, cas[index].caName);\n    }\n    \n    function blacklistCA(uint caIndex, uint detectorIndex) public {\n    // detectors can blacklist CAs if they breach a threshold.\n    if (detectors[detectorIndex].authority == msg.sender) {\n      if (cas.length > 1) {\n        cas[caIndex] = cas[cas.length-1];\n        delete(cas[cas.length-1]); \n      }\n      cas.length--;\n    }\n        emit CABlacklisted(caIndex, detectorIndex);\n    }\n\n    function registerDCP(string identifier, string data, string certHash, uint certExpiry, address CA) public returns (uint dcpID) {\n        dcpID = dcps.length++;\n        DomainCertificatePolicy storage dcp = dcps[dcpID];\n        dcp.identifier = identifier;\n        dcp.owner = msg.sender;\n        dcp.data = data;\n        dcp.CA = CA;\n        dcp.certHash = certHash;\n        dcp.certExpiry = certExpiry;\n        emit DCPAdded(dcpID, msg.sender, identifier, data, certHash, certExpiry, CA);\n    }\n    \n    function getDCPCount() public constant returns(uint) {\n        return dcps.length;\n    }\n\n    function getDCP(uint index) public constant returns(address, string, string, string, uint, address) {\n        return (dcps[index].owner, dcps[index].identifier, dcps[index].data, dcps[index].certHash, dcps[index].certExpiry, dcps[index].CA);\n    }\n    \n    function signRP(uint dcpID, uint expiry) public returns (uint signatureID) {\n        if (dcps[dcpID].CA == msg.sender) {\n            signatureID = rps.length++;\n            ReactionPolicy storage rp = rps[signatureID];\n            rp.CA = dcps[dcpID].CA;\n            rp.signer = msg.sender;\n            rp.attributeID = dcpID;\n            rp.expiry = expiry;\n            emit RPSigned(signatureID, msg.sender, rp.CA, dcpID, expiry);\n        }\n    }\n\n    function getRPCount() public constant returns(uint) {\n        return rps.length;\n    }\n\n    function getRP(uint index) public constant returns(address, address, uint, uint) {\n        return (rps[index].signer, rps[index].CA, rps[index].attributeID, rps[index].expiry);\n    }\n    \n    function revokeSignature(uint reactionPolicyID, string certHash, address caAddress, uint detectorIndex) public returns (uint revocationID) {\n        if (rps[reactionPolicyID].signer == msg.sender || detectors[detectorIndex].authority == msg.sender) {\n            revocationID = revocations.length++;\n            Revocation storage revocation = revocations[revocationID];\n            revocation.rpID = reactionPolicyID;\n            revocation.certHash = certHash;\n            revocation.CA = caAddress;\n            emit SignatureRevoked(revocationID, certHash, reactionPolicyID, caAddress);\n        }\n    }\n    \n    function getRevokedCount() public constant returns(uint) {\n        return revocations.length;\n    }\n\n    function getRevokedCerts(uint index) public constant returns(uint, string, address) {\n        return (revocations[index].rpID, revocations[index].certHash, revocations[index].CA);\n    }\n    \n}",
  "sourcePath": "/Users/kandarp/Github/dpki/contracts/IKP.sol",
  "compiler": {
    "name": "solc",
    "version": "0.4.23+commit.124ca40d.Emscripten.clang"
  },
  "schemaVersion": "2.0.0",
  "updatedAt": "2018-05-07T01:24:16.874Z"
}